:020000040800F2
:1000000000800120B97C0008C1530008C3530008D8
:10001000C5530008C7530008C9530008000000007A
:10002000000000000000000000000000CB530008AA
:10003000CD53000800000000CF530008D153000842
:10004000097D0008097D0008097D0008097D000878
:10005000097D0008097D0008097D0008097D000868
:10006000097D0008097D0008097D0008097D000858
:10007000097D0008097D0008097D0008097D000848
:10008000097D0008097D0008097D0008097D000838
:10009000097D0008097D0008097D0008D553000886
:1000A000097D0008097D0008097D0008097D000818
:1000B000097D0008097D0008097D0008097D000808
:1000C000097D0008097D0008097D0008097D0008F8
:1000D000097D0008F5530008097D0008097D000826
:1000E00011540008097D0008097D0008097D0008F9
:1000F000097D0008097D0008097D0008097D0008C8
:10010000097D0008097D0008097D0008097D0008B7
:1001100041540008097D000871540008097D000859
:10012000097D0008097D0008097D0008097D000897
:10013000097D0008097D0008097D0008097D000887
:10014000097D0008097D0008097D0008097D000877
:10015000097D0008097D0008097D0008097D000867
:10016000097D0008097D0008097D0008097D000857
:10017000097D0008097D0008000000000000000063
:08018000097D0008097D00085B
:1001900010B5054C237833B9044B13B10448AFF3C1
:1001A00000800123237010BDE00600200000000045
:1001B00034AB000808B5034B1BB103490348AFF348
:1001C000008008BD00000000E406002034AB0008F9
:1001D000034613F8012B002AFBD1181A0138704787
:1001E00001F0FF01102A2BDB10F0070F08D010F8E8
:1001F000013B013A8B422DD010F0070F42B3F6D1EC
:10020000F0B441EA012141EA014122F007047FF004
:1002100000070023F0E80256083C85EA010586EA5B
:10022000010685FA47F5A3FA87F586FA47F6A5FA97
:1002300087F68EB9EED1F0BC01F0FF0102F00702A3
:1002400032B110F8013B013A83EA010313B1F8D14E
:100250000020704701387047002D06BF354603382F
:10026000073815F0010F07D1013015F4807F02BF68
:10027000013015F4C03F0130F0BC0138704700BFB9
:1002800081F0004102E000BF83F0004330B54FEA47
:1002900041044FEA430594EA050F08BF90EA020FB4
:1002A0001FBF54EA000C55EA020C7FEA645C7FEA47
:1002B000655C00F0E2804FEA5454D4EB5555B8BF6A
:1002C0006D420CDD2C4480EA020281EA030382EADB
:1002D000000083EA010180EA020281EA0303362D6D
:1002E00088BF30BD11F0004F4FEA01314FF4801C40
:1002F0004CEA113102D0404261EB410113F0004F52
:100300004FEA03334CEA133302D0524263EB430308
:1003100094EA050F00F0A780A4F10104D5F1200EA6
:100320000DDB02FA0EFC22FA05F2801841F1000101
:1003300003FA0EF2801843FA05F359410EE0A5F1D5
:1003400020050EF1200E012A03FA0EFC28BF4CF006
:10035000020C43FA05F3C01851EBE37101F00045BC
:1003600007D54FF0000EDCF1000C7EEB00006EEBC9
:100370000101B1F5801F1BD3B1F5001F0CD3490853
:100380005FEA30004FEA3C0C04F101044FEA4452AA
:1003900012F5800F80F09A80BCF1004F08BF5FEA31
:1003A000500C50F1000041EB045141EA050130BD11
:1003B0005FEA4C0C404141EB010111F4801FA4F1B4
:1003C0000104E9D191F0000F04BF01460020B1FA09
:1003D00081F308BF2033A3F10B03B3F120020CDA41
:1003E0000C3208DD02F1140CC2F10C0201FA0CF01F
:1003F00021FA02F10CE002F11402D8BFC2F1200C84
:1004000001FA02F120FA0CFCDCBF41EA0C01904039
:10041000E41AA2BF01EB0451294330BD6FEA040482
:100420001F3C1CDA0C340EDC04F11404C4F120026D
:1004300020FA04F001FA02F340EA030021FA04F37F
:1004400045EA030130BDC4F10C04C4F1200220FAD6
:1004500002F001FA04F340EA0300294630BD21FA14
:1004600004F0294630BD94F0000F83F4801306BFDA
:1004700081F480110134013D4EE77FEA645C18BFCE
:100480007FEA655C29D094EA050F08BF90EA020F65
:1004900005D054EA000C04BF1946104630BD91EA5D
:1004A000030F1EBF0021002030BD5FEA545C05D160
:1004B0004000494128BF41F0004130BD14F580049F
:1004C0003CBF01F5801130BD01F0004545F0FE4113
:1004D00041F470014FF0000030BD7FEA645C1ABF48
:1004E000194610467FEA655C1CBF0B46024650EA7F
:1004F000013406BF52EA033591EA030F41F40021AB
:1005000030BD00BF90F0000F04BF0021704730B530
:100510004FF4806404F132044FF000054FF0000105
:1005200050E700BF90F0000F04BF0021704730B5C6
:100530004FF4806404F1320410F0004548BF40429B
:100540004FF000013EE700BF42004FEAE2014FEAF0
:1005500031014FEA02701FBF12F07F4393F07F4FCB
:1005600081F06051704792F0000F14BF93F07F4FFD
:10057000704730B54FF4607401F0004521F0004140
:1005800020E700BF50EA010208BF704730B54FF0C6
:1005900000050AE050EA010208BF704730B511F0CB
:1005A000004502D5404261EB41014FF4806404F103
:1005B00032045FEA915C3FF4DCAE4FF003025FEA85
:1005C000DC0C18BF03325FEADC0C18BF033202EB0D
:1005D000DC02C2F1200300FA03FC20FA02F001FA67
:1005E00003FE40EA0E0021FA02F11444C1E600BF06
:1005F00070B54FF0FF0C4CF4E06C1CEA11541DBFB9
:100600001CEA135594EA0C0F95EA0C0F00F0DEF883
:100610002C4481EA030621EA4C5123EA4C5350EA68
:10062000013518BF52EA033541F4801143F48013B9
:1006300038D0A0FB02CE4FF00005E1FB02E506F04A
:100640000042E0FB03E54FF00006E1FB03569CF09F
:10065000000F18BF4EF0010EA4F1FF04B6F5007FA5
:1006600064F5407404D25FEA4E0E6D4146EB060617
:1006700042EAC62141EA55514FEAC52040EA5E50A0
:100680004FEACE2EB4F1FD0C88BFBCF5E06F1ED84A
:10069000BEF1004F08BF5FEA500E50F1000041EB81
:1006A000045170BD06F0004646EA010140EA02002E
:1006B00081EA0301B4EB5C04C2BFD4EB0C0541EA50
:1006C000045170BD41F480114FF0000E013C00F365
:1006D000AB8014F1360FDEBF002001F0004170BD89
:1006E000C4F10004203C35DA0C341BDC04F11404A2
:1006F000C4F1200500FA05F320FA04F001FA05F22E
:1007000040EA020001F0004221F0004110EBD370FA
:1007100021FA04F642EB06015EEA430E08BF20EA26
:10072000D37070BDC4F10C04C4F1200500FA04F3C9
:1007300020FA05F001FA04F240EA020001F000415B
:1007400010EBD37041F100015EEA430E08BF20EACE
:10075000D37070BDC4F1200500FA05F24EEA020E16
:1007600020FA04F301FA05F243EA020321FA04F045
:1007700001F0004121FA04F220EA020000EBD370FC
:100780005EEA430E08BF20EAD37070BD94F0000FFC
:100790000FD101F00046400041EB010111F4801F30
:1007A00008BF013CF7D041EA060195F0000F18BFE1
:1007B000704703F00046520043EB030313F4801F1D
:1007C00008BF013DF7D043EA0603704794EA0C0FD7
:1007D0000CEA135518BF95EA0C0F0CD050EA4106ED
:1007E00018BF52EA4306D1D181EA030101F000416A
:1007F0004FF0000070BD50EA410606BF1046194692
:1008000052EA430619D094EA0C0F02D150EA01369D
:1008100013D195EA0C0F05D152EA03361CBF1046DE
:1008200019460AD181EA030101F0004141F0FE417D
:1008300041F470014FF0000070BD41F0FE4141F401
:10084000780170BD70B54FF0FF0C4CF4E06C1CEA01
:1008500011541DBF1CEA135594EA0C0F95EA0C0FB6
:1008600000F0A7F8A4EB050481EA030E52EA033571
:100870004FEA013100F088804FEA03334FF0805592
:1008800045EA131343EA12634FEA022245EA1115BF
:1008900045EA10654FEA00260EF000419D4208BF70
:1008A000964244F1FD0404F5407402D25B084FEA1D
:1008B0003202B61A65EB03055B084FEA32024FF4C9
:1008C00080104FF4002CB6EB020E75EB030E22BF26
:1008D000B61A754640EA0C005B084FEA3202B6EBE6
:1008E000020E75EB030E22BFB61A754640EA5C0095
:1008F0005B084FEA3202B6EB020E75EB030E22BF25
:10090000B61A754640EA9C005B084FEA3202B6EB25
:10091000020E75EB030E22BFB61A754640EADC00E4
:1009200055EA060E18D04FEA051545EA16754FEA46
:1009300006164FEAC30343EA52734FEAC2025FEA64
:100940001C1CC0D111F4801F0BD141EA00014FF0F3
:1009500000004FF0004CB6E711F4801F04BF0143C4
:100960000020B4F1FD0C88BFBCF5E06F3FF6AFAEE0
:10097000B5EB030C04BFB6EB020C5FEA500C50F170
:10098000000041EB045170BD0EF0004E4EEA1131F3
:1009900014EB5C04C2BFD4EB0C0541EA045170BDFA
:1009A00041F480114FF0000E013C90E645EA060E3E
:1009B0008DE60CEA135594EA0C0F08BF95EA0C0F6C
:1009C0003FF43BAF94EA0C0F0AD150EA01347FF4B4
:1009D00034AF95EA0C0F7FF425AF104619462CE78B
:1009E00095EA0C0F06D152EA03353FF4FDAE1046EE
:1009F000194622E750EA410618BF52EA43067FF43F
:100A0000C5AE50EA41047FF40DAF52EA43057FF4CE
:100A1000EBAE12E74FF0FF3C06E000BF4FF0010CD9
:100A200002E000BF4FF0010C4DF804CD4FEA410C3D
:100A30007FEA6C5C4FEA430C18BF7FEA6C5C1BD00A
:100A400001B050EA410C0CBF52EA430C91EA030F8B
:100A500002BF90EA020F0020704710F1000F91EAE8
:100A6000030F58BF994208BF90422CBFD8176FEAB6
:100A7000E37040F0010070474FEA410C7FEA6C5C84
:100A800002D150EA013C07D14FEA430C7FEA6C5C8B
:100A9000D6D152EA033CD3D05DF8040B704700BFB7
:100AA0008446104662468C461946634600E000BF05
:100AB00001B5FFF7B7FF002848BF10F1000F01BDD7
:100AC0004DF808EDFFF7F4FF0CBF012000205DF8A2
:100AD00008FB00BF4DF808EDFFF7EAFF34BF012027
:100AE00000205DF808FB00BF4DF808EDFFF7E0FFC0
:100AF00094BF012000205DF808FB00BF4DF808ED11
:100B0000FFF7CEFF94BF012000205DF808FB00BF77
:100B10004DF808EDFFF7C4FF34BF012000205DF859
:100B200008FB00BF4FEA410C7FEA6C5C02D150EA3F
:100B3000013C0AD14FEA430C7FEA6C5C02D152EAD5
:100B4000033C02D14FF0000070474FF001007047A6
:100B50004FEA410212F5001215D211D56FF47873E5
:100B6000B3EB625212D94FEAC12343F0004343EA88
:100B7000505311F0004F23FA02F018BF4042704763
:100B80004FF00000704750EA013005D111F00040ED
:100B900008BF6FF0004070474FF00000704700BF83
:100BA0004A0011D212F5001211D20DD56FF47873EC
:100BB000B3EB62520ED44FEAC12343F0004343EA41
:100BC000505323FA02F070474FF00000704750EA8C
:100BD000013002D14FF0FF3070474FF000007047F6
:100BE0004FEA4102B2F1E04324BFB3F5001CDCF14F
:100BF000FE5C0DD901F0004C4FEAC0024CEA507087
:100C0000B2F1004F40EB830008BF20F001007047B5
:100C100011F0804F21D113F13872BCBF01F00040B8
:100C2000704741F480114FEA5252C2F11802C2F1EA
:100C3000200C10FA0CF320FA02F018BF40F001006B
:100C40004FEAC1234FEAD32303FA0CFC40EA0C001D
:100C500023FA02F34FEA4303CCE77FEA625307D15A
:100C600050EA01331EBF4FF0FE4040F44000704791
:100C700001F0004040F0FE4040F40000704700BF2B
:100C800053B94AB9002908BF00281CBF4FF0FF31F3
:100C90004FF0FF3000F07AB9ADF1080C6DE904CEE9
:100CA00000F006F8DDF804E0DDE9022304B0704747
:100CB0002DE9F0478C460D460446089E002B51D185
:100CC0008A4217466DD9B2FA82FEBEF1000F0BD0F0
:100CD000CEF1200C01FA0EF520FA0CFC02FA0EF708
:100CE0004CEA050C00FA0EF44FEA174A250CBCFB3F
:100CF000FAF81FFA87F90AFB18CC45EA0C4508FBFD
:100D000009F3AB420AD9ED1908F1FF3280F02381D3
:100D1000AB4240F22081A8F102083D44ED1AA4B292
:100D2000B5FBFAF00AFB105544EA054400FB09F94B
:100D3000A14509D9E41900F1FF3380F00A81A145EA
:100D400040F2078102383C44A4EB090440EA084021
:100D50000021002E61D024FA0EF400233460736069
:100D6000BDE8F0878B4207D9002E54D0002186E8D9
:100D700021000846BDE8F087B3FA83F1002940F06E
:100D80008E80AB4202D3824200F2FA80841A65EB75
:100D900003050120AC46002E3FD086E81010BDE8C8
:100DA000F08712B90127B7FBF2F7B7FA87FEBEF159
:100DB000000F34D1EB1B3A0C1FFA87FC0121B3FB67
:100DC000F2F8250C02FB183345EA03450CFB08F347
:100DD000AB4207D9ED1908F1FF3002D2AB4200F265
:100DE000D1808046ED1AA3B2B5FBF2F002FB10559C
:100DF00043EA05440CFB00FCA44507D9E41900F1C3
:100E0000FF3302D2A44500F2B8801846A4EB0C04CC
:100E100040EA08409DE731463046BDE8F087CEF114
:100E2000200405FA0EF307FA0EF720FA04F83A0C3C
:100E300025FA04F448EA0308B4FBF2F14FEA184536
:100E400002FB11441FFA87FC45EA044501FB0CF341
:100E5000AB4200FA0EF409D9ED1901F1FF3080F030
:100E60008A80AB4240F2878002393D44EB1A1FFA78
:100E700088F5B3FBF2F002FB103345EA034500FBB3
:100E80000CF3AB4207D9ED1900F1FF386FD2AB423A
:100E90006DD902383D44EB1A40EA01418FE7C1F1B8
:100EA000200722FA07F88B4005FA01F448EA030309
:100EB00020FA07FE4FEA134CFD404EEA040EB5FB44
:100EC000FCF94FEA1E440CFB19551FFA83F844EA5B
:100ED000054509FB08F4AC4202FA01F200FA01FAF6
:100EE00008D9ED1809F1FF3043D2AC4241D9A9F13C
:100EF00002091D442D1B1FFA8EFEB5FBFCF00CFBF6
:100F000010554EEA054400FB08F8A04507D9E4183F
:100F100000F1FF3529D2A04527D902381C4440EA08
:100F20000940A4EB0804A0FB02894C45C6464D4687
:100F300015D312D056B1BAEB0E0364EB050404FAD4
:100F400007F7CB401F43CC40376074600021BDE8F9
:100F5000F0871846F8E69046E0E6C245EAD2B8EBDC
:100F6000020E69EB03050138E4E72846D7E740465F
:100F700091E78146BEE7014678E702383C4445E701
:100F8000084608E7A8F102083D442BE7704700BF78
:100F9000F0B52A482A4C2B4B2B4D2C4F002684E8C9
:100FA00049000122E26026616661E6612662EB6C1F
:100FB00043F00203EB64EB6C89B003F0020301938E
:100FC000019B05924FF44063039312230493032380
:100FD000069303A904233846079300F0BBFD03A939
:100FE000384600F0B7FDAB6D43F48003AB65AB6DE5
:100FF00003F480030293029BAB6B43F48003AB6367
:10100000AB6B23F48003AB6332460F21212000F049
:1010100085FC212000F0B6FC32460F21222000F092
:101020007DFC222000F0AEFC204601F09FF8314606
:10103000204601F0A5FB09B0F0BD00BF00580040FC
:10104000DC070020812670000010024000040048E8
:10105000034B4FF4804153F8200000F0F6BE00BF70
:1010600000000020FFF794BF10B586B006AC4FF427
:101070007A7304F8012D029301230A460193014675
:101080000094054801F006FA20B1034801F0BFF8CA
:10109000FFF77EFF06B010BDDC0700207FB506AA73
:1010A000002302F8013D4FF47A73029301238DE887
:1010B0000C000A460146074801F0A4FA20B1054891
:1010C00001F0A5F8FFF764FF9DF8170007B05DF881
:1010D00004FB00BFDC0700201FB54FF47A748DE8D5
:1010E0001C000A4601230146064801F08BFA04461B
:1010F00020B1044801F08BF8FFF74AFF204604B006
:1011000010BD00BFDC07002010B5074CA36898474E
:101110006A2807D1054B44F230401C602368984789
:10112000002010BD012010BD60000020FC06002042
:10113000034B1B6813B11B6B03B11847704700BF0B
:10114000FC06002010B5074CA36898476A2807D111
:10115000054B44F23C401C6023689847002010BDBA
:10116000012010BD9400002000070020034B1B68E5
:1011700013B11B6B03B11847704700BF0007002075
:1011800010B5074CBE2063689847BC2806D1054BB4
:10119000BE201C6023689847002010BD012010BDB0
:1011A0000400002004070020024B1B68BE209B683F
:1011B000184700BF0407002037B50F4DAB689847AC
:1011C0003D2817D10D4B1D6058238DF800300823A2
:1011D00000248DF8033040238DF804308DF8014051
:1011E0008DF8024002AA12E903002B6898472046B6
:1011F00003B030BD0120FBE72000002008070020DD
:10120000034B1B6813B11B6B03B11847704700BF3A
:101210000807002010B5074CBA2063689847B1282A
:1012200006D1054BBA201C6023689847002010BDEA
:10123000012010BD540000200C070020024B1B6849
:10124000BA209B68184700BF0C07002010B5064C59
:10125000064B2360FFF706FF236800211B68BE20B2
:101260009847002010BD00BF10070020100000208C
:10127000024B1B68BE20DB68184700BF1007002028
:1012800010B5C4B220212046FFF708FF00F0F80295
:1012900042F0850220462021BDE81040FFF7E4BE61
:1012A00010B5C4B220212046FFF7F8FE00F0F80286
:1012B00042F0850220462021BDE81040FFF7D4BE51
:1012C00010B50446FFF7CEFEE0B20F21BDE8104096
:1012D000FFF7E4BE2DE9F3415FFA80F8022301AA8B
:1012E000B0214046FFF7F8FE022301AAB62140468E
:1012F0009DF804609DF80550FFF7EEFE9DF805701F
:101300009DF80440022344EA072401AABA2140467A
:10131000FFF7E2FE27B29DF805309DF8044001AAD0
:1013200044EA0324A82102234046FFF7D5FE9DF896
:1013300005209DF8043043EA02231BB2DB1B07EEB5
:10134000903A76086D08AB1BB8EEE77A07EE903A54
:1013500024B2F8EEE77AE41B67EE277A07EE104A2C
:10136000B8EEC77A87EE870A07EE906AF8EEE77A5A
:101370009FED0E7A70EE277AB2EE040A67EE807A5D
:10138000F4EEC77AF1EE10FA0DDCF5EE407A9FED3F
:10139000087AF1EE10FA48BFF0EE477A87EE800A3D
:1013A00002B0BDE8F081F0EE477AF7E700007A443A
:1013B000000000002DE9F3415FFA80F801AA022342
:1013C000B2214046FFF788FE35214046FFF766FE12
:1013D00006029DF8055006F4407380019DF80460F4
:1013E00000F440701E43284304230DEB0302C5089C
:1013F000BC214046FFF770FE9DF805409DF8047043
:101400009DF8073047EA04279DF8064001AA44EA00
:101410000324AA2102234046FFF75EFE9DF8052023
:101420009DF8043043EA02233FB21BB2DB1BF608EF
:1014300007EE903AAB1BB8EEE77A07EE903A24B28B
:10144000F8EEE77AE41B67EE277A07EE104AB8EE6B
:10145000C77AC7EE876A07EE906AB8EEE70A36EEFB
:10146000800A02B0BDE8F08107B502AB03E90300D2
:1014700020219DF800203C20FFF7F6FD9DF801207B
:1014800021213C20FFF7F0FD9DF8022022213C2085
:10149000FFF7EAFD9DF8032023213C20FFF7E4FD40
:1014A0009DF8042024213C2003B05DF804EBFFF7F5
:1014B000DBBD08B522213C20FFF7F0FD00F0FC0267
:1014C00042F0030222213C20BDE80840FFF7CCBDDA
:1014D00010B5222104463C20FFF7E0FD00F0DF02BA
:1014E0000CB142F0200222213C20BDE81040FFF761
:1014F000BBBD08B5FFF7B6FD0F213C20BDE8084095
:10150000FFF7CCBD30B5212185B005463C20FFF763
:10151000C5FD0623044602AAA8213C20FFF7DCFDF6
:101520009DF809209DF8083003EB0223ADF8003048
:101530009DF80B209DF80A3003EB0223ADF8023032
:101540009DF80D209DF80C3004F0600403EB02239D
:10155000202CADF8043021D003D84CB19FED127A85
:1015600008E0402C1DD0602CF8D19FED107A01E0EE
:101570009FED0F7A00223DF9123007EE903AF8EE17
:10158000E77A67EE877AFDEEE77A17EE903A25F86C
:1015900012300132032AEED105B030BD9FED057A3D
:1015A000E8E79FED057AE5E700000000E17A143FE7
:1015B000295C0F3EE17A943EF628DC3E73B50024A8
:1015C000C6B201AD04F12801C9B23046FFF766FD8D
:1015D00028550134032CF5D19DF806309DF80520DF
:1015E0001B0443EA02239DF8042013431A0248BF58
:1015F00043F07F43642253434FF4805293FBF2F352
:1016000007EE903AB8EEE70ADFED027A80EE270A9D
:1016100002B070BD0000C84210B5C4B21A21204605
:10162000FFF73CFD00F0FE0242F0010220461A21C5
:10163000FFF71AFD10212046FFF730FD00F08D0264
:1016400042F0320220461021BDE81040FFF70CBDE9
:10165000FFF7E2BF10B50446FFF704FDE0B20F212B
:10166000BDE81040FFF71ABD10B510210446D42084
:10167000FFF714FD00F003022243D2B21021D42060
:10168000FFF7F2FC1221D420FFF708FD00F0BB02A7
:1016900042EA14221221D420BDE81040FFF7E4BC36
:1016A00008B51021D420FFF7F9FC102100F00F023B
:1016B000BDE80840D420FFF7D7BC10B5152104467B
:1016C000D420FFF7EBFC00F0EF020CB142F0100267
:1016D0001521D420BDE81040FFF7C6BC10B511217C
:1016E0000446D420FFF7DAFC00F003022243D2B212
:1016F0001121D420FFF7B8FC1221D420FFF7CEFC33
:1017000000F0BB0242EA14221221D420BDE81040AE
:10171000FFF7AABC08B51121D420FFF7BFFC1121A7
:1017200000F00F02BDE80840D420FFF79DBC10B5C3
:1017300016210446D420FFF7B1FC00F07F020CB163
:1017400042F080021621D420BDE81040FFF78CBC87
:1017500008B5FFF787FC0F21D420BDE80840FFF74C
:101760009DBCFFF7F5BF000030B5102185B00546E0
:10177000D420FFF793FC0623044602AA2821D42094
:10178000FFF7AAFC9DF809209DF80830174803EBE5
:101790000223ADF800309DF80B209DF80A3003EBD2
:1017A0000223ADF802309DF80D209DF80C3004F0B6
:1017B0000C0400EB840003EB022390ED007AADF8FB
:1017C000043000223DF9123007EE903AF8EEE77A45
:1017D00067EE877AFDEEE77A17EE903A25F8123039
:1017E0000132032AEED105B030BD00BF50AB000876
:1017F00030B5112185B00446D420FFF74FFC0623F5
:10180000054602AA2221D420FFF766FC9DF8092094
:101810009DF80830154803EB0223ADF800309DF821
:101820000B209DF80A3003EB0223ADF802309DF83F
:101830000D209DF80C3005F00C0503EB022300EBA6
:101840008500ADF8043090ED007A002320463DF984
:10185000132007EE902AF8EEE77A013367EE877AD5
:10186000032BE0EC017AF2D105B030BD84AB000867
:1018700038B50A4B054618684FF47A73B0FBF3F09D
:1018800000F08CF8044638B9024629464FF0FF3084
:1018900000F044F8204638BD012038BD5002002039
:1018A00010B5032000F028F80020FFF7E1FF044600
:1018B00018B903F089FB204610BD0124FBE70000A6
:1018C000024A136801331360704700BF28080020E4
:1018D000014B1868704700BF2808002038B504463F
:1018E000FFF7F6FF631C054618BF0134FFF7F0FF52
:1018F000401B8442FAD838BD074AD36823F4E0631A
:101900001B041B0C43F0BF63000243F4003300F4DC
:10191000E0600343D360704700ED00E0174B30B543
:10192000DC68C4F30224C4F10703251D042B28BF7F
:101930000423062D4FF0010505FA03F303F1FF33ED
:101940008CBF033C00241940A14005FA04F4013C7B
:101950002240002842EA01024FEA0212AFBF00F122
:10196000604000F00F00064BD2B2A5BF00F5614009
:10197000D2B21A5480F8002330BD00BF00ED00E061
:1019800014ED00E04209012300F01F0003FA00F00B
:10199000014B43F82200704700E100E00138B0F14C
:1019A000807F0AD2064B074A5860F02182F8231044
:1019B0000020072298601A6070470120704700BF1E
:1019C00010E000E000ED00E0144B984217D0203307
:1019D000984216D02033984215D02033984214D024
:1019E0002033984213D02033984212D020339842AB
:1019F00011D0203398420CBF0720002070470020F0
:101A00007047012070470220704703207047042070
:101A10007047052070470620704700BF00600140F6
:101A200038B50446002867D00068344DFFF7CCFF76
:101A300055F82030002B5FD1204603F0DDFA304B03
:101A40001A6801321A601B68012B19D12D4B1A68D4
:101A500022F080421A601A68A1680A431A601A6864
:101A600022F47F021A602279012A05D1E1681A68FE
:101A7000013942EA01421A601A6842F000421A60D3
:101A800020686169036823F4714303602369026875
:101A90000B43A1690B43134303600368216A23F0DE
:101AA0000F030360E36902680B4313430360836819
:101AB000616AA26A23F45F0383608368013A0B437F
:101AC00043EA024383604368226B03F007034360E9
:101AD000436843EAC203E26A43EA022343600368BD
:101AE00043F080030360012384F83430FFF76CFF78
:101AF00045F82040002038BD012038BD14070020E3
:101B0000340700200060014090F82520022A10B51B
:101B100003D00422C263012010BD0268046C116866
:101B2000836B21F00E011160116821F00101116039
:101B3000426C012102F01C0201FA02F262600024F0
:101B400080F8251080F8244013B19847204610BD36
:101B5000184610BD2DE9F04F85B00B68DFF8A8815D
:101B6000674C01930023019ADA4002D105B0BDE829
:101B7000F08F0126019A9E4012EA060E00F0B18015
:101B80004A6822F01007022F16D14FEAD30900EB62
:101B9000890903F0070AD9F820504FEA8A0A4FF062
:101BA0000F0C0CFA0AFC25EA0C0C0D6905FA0AF573
:101BB00045EA0C05C9F820504FEA430C0325D0F83C
:101BC00000B005FA0CF5ED4302F0030A0BEA050B31
:101BD0000AFA0CF9013F49EA0B09012FC0F80090FD
:101BE00011D8876805EA0709CF6807FA0CF747EAB2
:101BF00009078760476827EA0609C2F300179F4074
:101C000047EA09074760BAF1030F07D1C76A27EA15
:101C10000606C2F3C0079F403E43C662C668354011
:101C20008E6806FA0CF63543C560D50059D5D8F84C
:101C3000605045F00105C8F86050D8F8605023F0B6
:101C4000030606F1804605F0010506F5803603958A
:101C500003F0030C039DB5684FEA8C0C0F2707FABD
:101C60000CF7B0F1904F25EA07073CD0254DA8426C
:101C70003BD005F58065A84239D005F58065A842BE
:101C800037D005F58065A84235D005F58065A842B6
:101C900033D005F58065A84214BF0725062505FA4F
:101CA0000CF53D43B56025686FEA0E06D70354BFB7
:101CB00035404EEA050525606568970354BF3540F9
:101CC0004EEA05056560A568D70254BF35404EEA67
:101CD0000505A560E568920254BF35404EEA05054A
:101CE000E56001333FE70025D9E70125D7E7022565
:101CF000D5E70325D3E70425D1E70525CFE700BFC6
:101D00000004014000040048001002402DE9F74F94
:101D1000474CDFF824A1DFF824B100234FF001087D
:101D20004FF0030931FA03F202D103B0BDE8F08F9E
:101D300008FA03F611EA060201926AD007685A000F
:101D400009FA02F24FEAD30C174300EB8C0C076040
:101D5000DCF8207003F0070E3D464FEA8E0E0F2789
:101D600007FA0EFE25EA0E0ECCF820E0D0F808E0C7
:101D7000D2430EEA020EC0F808E0D0F804E0F643C1
:101D80000EEA060EC0F804E0D0F80CE002EA0E02FB
:101D9000C260C26A1640C66223F0030606F180469E
:101DA00006F5803603F0030EB2684FEA8E0E07FA8E
:101DB0000EF7B0F1904F02EA070C2CD01D4A90426A
:101DC0002BD002F58062904229D002F580629042C9
:101DD00027D002F58062904225D0504525D0584545
:101DE0000CBF0622072202FA0EF2944511D1B26806
:101DF000019D22EA0707B7602268ED432A4022606E
:101E000062682A406260A2682A40A260E2681540C7
:101E1000E560013386E70022E5E70122E3E70222DD
:101E2000E1E70322DFE70422DDE70522DBE700BF6D
:101E30000004014000040048001400480018004855
:101E40000AB18161704781627047436959404161BD
:101E50007047704708B5044B5969014202D0586178
:101E6000FFF7F7FF08BD00BF0004014003689A694F
:101E7000910744BF00229A629A69D2075EBF9A69AD
:101E800042F001029A61704730B5039C0568234314
:101E9000640D04F4806444F07F7444F4583468683A
:101EA000C1F3090144F47F74194344F0030441EA87
:101EB000024120EA04042143696030BD2DE9F0416C
:101EC000069F0446884616461D462268936938EAEE
:101ED00003030CBF01230023B34202D00020BDE85E
:101EE000F0816B1CF2D0FFF7F3FCC01B854201D3DD
:101EF000002DEAD1636C43F020036364202384F84F
:101F00004130002384F8423084F840300120BDE89D
:101F1000F081036870B50446986910F010000D4612
:101F2000164616D170BD691C14D0FFF7D1FC801B7A
:101F3000854200D36DB9636C43F0200363642023B2
:101F400084F84130002384F8423084F84030012086
:101F500070BD236899698A06E5D510222025DA61CB
:101F60002046DD61FFF782FF2268536823F0FF738C
:101F700023F48B3323F4FF7323F001035360636C6A
:101F800043F00403636484F84150DBE770B5044612
:101F90000D46164623689B699B0701D5002070BD3E
:101FA000324629462046FFF7B4FFA0B96A1CF1D09B
:101FB000FFF78EFC801B854201D3002DEAD1636CB4
:101FC00043F020036364202384F84130002384F825
:101FD000423084F84030012070BD0000F7B5099E02
:101FE0001F46164B0093054614464FF08073FAB215
:101FF000FFF74AFF324608992846FFF7C7FF10B19E
:10200000012003B0F0BD012F2B680CD1E4B29C621B
:10201000089B0096002280212846FFF74FFF0030E2
:1020200018BF0120EDE7220A9A6208993246284635
:10203000FFF7ACFF0028E3D12B68E7E70020008022
:10204000F7B5099E1F46164B00930546144600231C
:10205000FAB2FFF719FF324608992846FFF796FFB4
:1020600010B1012003B0F0BD012F2B680CD1E4B2F8
:102070009C62089B0096002240212846FFF71EFF25
:10208000003018BF0120EDE7220A9A620899324613
:102090002846FFF77BFF0028E3D12B68E7E700BF66
:1020A0000020008070B504460D46164623689B69E3
:1020B0009B0601D5002070BD324629462046FFF719
:1020C00028FF90B9FFF704FC801B854201D3002D47
:1020D000ECD1636C43F020036364202384F8413027
:1020E000002384F8423084F84030012070BD70B580
:1020F00004460D46164623689B695B070ED432469C
:1021000029462046FFF705FFF0B923689A69910632
:102110001CD59A69520703D5228D0AB1002070BDE3
:102120002021D9615A6822F0FF7222F48B3222F406
:10213000FF7222F001025A600023636484F84110A8
:1021400084F8423084F84030012070BDFFF7C0FBB6
:10215000801B854201D3002DCDD1636C43F0200359
:102160006364202384F841300023EBE710B5044674
:1021700000284AD090F8413003F0FF021BB980F8E4
:10218000402002F06BFF242384F841302368E1688B
:102190001A6822F001021A60626822F070621A6105
:1021A0009A68012922F400429A60A26824D142F47C
:1021B00000429A605A68616942F0007242F400423B
:1021C0005A60DA6822F40042DA6022690A43A1699F
:1021D00042EA0122DA60216AE2690A431A601A6857
:1021E00042F001021A6000202023606484F841302C
:1021F000206384F8420010BD42F4044202299A6030
:1022000004BF4FF400625A60D4E7012010BD10B53E
:10221000044698B10268242380F84130136823F003
:102220000103136002F050FF0020606484F8400056
:1022300084F84100206384F8420010BD012010BDE5
:102240002DE9F743984690F84130202B04460E467E
:10225000914640F0848090F84030012B7FD00127D8
:1022600080F84070FFF734FB1923054600903A468A
:102270004FF400412046FFF721FE18B1012003B0C2
:10228000BDE8F083212384F84130102384F84230E4
:102290006064A4F82A80638DC4F824909BB2FF2B5D
:1022A0006063304B26D9FF22228500934FF0807364
:1022B00031462046FFF7E8FD638D0A999BB22A4616
:1022C0002046FBB9FFF7EEFE0028D7D12368202176
:1022D000D9615A6822F0FF7222F48B3222F4FF7225
:1022E00022F001025A6084F8411084F8400084F81A
:1022F0004200C4E7628D009392B222854FF00073D2
:10230000D2B2D5E7FFF742FE0028B7D1636A226850
:1023100013F8011B91626362638D228D013B9BB2B6
:102320006385638D013A92B29BB22285002BC3D0A4
:10233000002AC1D100950A9B80212046FFF7BEFDEF
:1023400000289BD1638D9BB2FF2B03D9FF222285EE
:102350000090ABE7628D009092B22285CEE702201A
:102360008DE700BF002000802DE9F743984690F8E4
:102370004130202B04460E46914640F0868090F86E
:102380004030012B00F08180012780F84070FFF77A
:102390009FFA1923054600903A464FF40041204623
:1023A000FFF78CFD18B1012003B0BDE8F0832223B4
:1023B00084F84130102384F842306064A4F82A8005
:1023C000638DC4F824909BB2FF2B6063304B26D9F9
:1023D000FF22228500934FF0807331462046FFF79D
:1023E00053FD638D0A999BB22A462046FBB9FFF73D
:1023F00059FE0028D7D123682021D9615A6822F0DC
:10240000FF7222F48B3222F4FF7222F001025A6032
:1024100084F8411084F8400084F84200C4E7628DDB
:10242000009392B222854FF00073D2B2D5E7FFF746
:102430005EFE0028B7D12268636A526A1A70636A26
:10244000228D01336362638D013B9BB26385638D93
:10245000013A92B29BB22285002BC2D0002AC0D191
:1024600000950A9B80212046FFF728FD00289AD17D
:10247000638D9BB2FF2B03D9FF2222850090AAE730
:10248000628D009092B22285CDE702208CE700BFDA
:10249000002400802DE9F04F9B4690F8413085B034
:1024A000202B04460F460392BDF83CA0DDF8408087
:1024B00040F0A5800E9B13B1BAF1000F06D14FF486
:1024C00000736364012005B0BDE8F08F90F84030E0
:1024D000012B00F09480012580F84050FFF7F8F9B7
:1024E0001923009006462A464FF400412046FFF784
:1024F000E5FC81460028E5D1212384F841304023C2
:1025000084F842300E9B606463626063A4F82AA082
:102510000196CDF800805B46039A39462046FFF7C6
:102520005DFD10B184F84090CCE7638D9BB2FF2B2A
:1025300055D9FF22228500904FF0807339462046FE
:10254000FFF7A2FC324641462046FFF71FFD002858
:10255000B8D1636A226813F8011B91626362638DCC
:10256000228D013B9BB26385638D013A92B29BB28F
:102570002285ABB1A2B90096434680212046FFF7E1
:102580009DFC00289ED1638D9BB2FF2B2FD9FF228B
:10259000228500904FF0807339462046FFF774FC87
:1025A000638D9BB2002BCDD1324641462046FFF7CA
:1025B00079FD002886D123682021D9615A6822F04C
:1025C000FF7222F48B3222F4FF7222F001025A6071
:1025D00084F8411084F8400084F8420073E7628D6B
:1025E000009092B222854FF00073D2B2A6E7628DBE
:1025F000009092B222854FF00073D2B2CCE7022055
:1026000061E700002DE9F04F9B4690F8413085B01E
:10261000202B04460F460392BDF83CA0DDF8408015
:1026200040F0A9800E9B13B1BAF1000F06D14FF410
:1026300000736364012005B0BDE8F08F90F840306E
:10264000012B00F09880012580F84050FFF740F9F9
:102650001923009006462A464FF400412046FFF712
:102660002DFC81460028E5D1222384F84130402307
:1026700084F842300E9B606463626063A4F82AA011
:102680000196CDF800805B46039A39462046FFF755
:10269000D7FC10B184F84090CCE7638D9BB2FF2B40
:1026A000364B58D9FF22009322854FF0807339466C
:1026B0002046FFF7E9FB009643460022042120460E
:1026C000FFF7FCFB0028B5D12268636A526A1A70D2
:1026D000636A228D01336362638D013B9BB2638524
:1026E000638D013A92B29BB22285ABB1A2B900963A
:1026F000434680212046FFF7E1FB00289AD1638DF5
:102700009BB2FF2B2FD9FF22228500904FF08073C0
:1027100039462046FFF7B8FB638D9BB2002BCAD128
:10272000324641462046FFF7BDFC002882D123688F
:102730002021D9615A6822F0FF7222F48B3222F4F0
:10274000FF7222F001025A6084F8411084F84000C0
:1027500084F842006FE7628D009392B222854FF0B9
:102760000073D2B2A3E7628D009092B222854FF03F
:102770000073D2B2CCE702205DE700BF00240080E6
:1027800090F84120D2B2202A10B51DD190F84030E7
:10279000012B19D0242380F8413003681C6824F0F1
:1027A00001041C601C6824F480541C601C682143D4
:1027B0001960196841F001011960002380F8412077
:1027C00080F84030184610BD022010BD10B590F8BA
:1027D0004140E4B2202C1CD190F84030012B18D09D
:1027E000242380F8413003681A6822F001021A603D
:1027F0001A6822F4706242EA012119601A6842F0F4
:1028000001021A60002380F8414080F840301846E9
:1028100010BD022010BD2DE9F04104468AB0002809
:1028200074D090F8BD3303F0FF021BB980F8BC23CD
:1028300002F076FD2546032355F8100B84F8BD33CE
:1028400001F0B3FD0FCD6E460FC60FCD0FC695E854
:10285000030086E8030004F1040898E80E002068ED
:1028600001F074FD0021206801F0A5FD0021224641
:10287000234604F110050126084683F83C10A3F80E
:10288000421001310F2983F83D6083F83F005864FE
:102890009864186503F11C03EFD100231F4682F8EA
:1028A000FC3101330F2B82F8FD7182F8FF71C2F801
:1028B0000472C2F80872C2F8107202F11C02EED162
:1028C0000FCD6E460FC60FCD0FC695E8030086E804
:1028D000030098E80E00206801F0AEFD012384F8A3
:1028E000387084F8BD33636A012B02D1204600F0B2
:1028F0000FF8A36A012B02D1204600F01CF82068D3
:1029000001F036FE00200AB0BDE8F0810120FAE7B0
:10291000026803460121C0F8FC13002083F8F40389
:10292000936943F000639361536D43F0805343F028
:1029300003035365704702680123C0F80034936BAA
:1029400043F400339363002070470000024A136889
:1029500043F480731360704700700040024B1868A6
:1029600000F4C060704700BF00700040174B1A6849
:10297000B0F5007F02F4C0621CD1B2F5007F15D023
:102980001A6822F4C06242F400721A60104A116898
:1029900032224A430F49B2FBF1F21946013258691B
:1029A000400500D522B94B695B050DD40020704766
:1029B000013AF4E7B2F5806F1FBF1A6822F4C062D3
:1029C00042F480621A60F1E7032070470070004013
:1029D0005002002040420F00024A536843F48063D3
:1029E00053607047007000402DE9F041069D044699
:1029F0000F461646984621688A683A4214BF01225B
:102A00000022B24202D10020BDE8F0816B1CF3D05D
:102A1000FEF75EFFA0EB0800854201D3002DEAD14E
:102A2000042384F83930E36B43F00103E3630120AE
:102A3000BDE8F08137B50446FEF74AFF0546002C95
:102A400049D094F83830012B47D0012384F838302E
:102A500094F8392002F0FF033AB984F83830204660
:102A600002F048FB41F2883323642068A1680268C1
:102A7000236C013922F4706242EA012202602021B3
:102A8000009300222B462046FFF7AEFFF0B92268E4
:102A900065681168E36821F07F4143EA056321F02E
:102AA00010010B431360A169636955680B432169E9
:102AB00043EA01430A4929400B435360136843F03A
:102AC000010313600123E06384F83930002384F8A4
:102AD000383003B030BD0120FBE70220F9E700BF2A
:102AE000FEF8E0FF37B51E4DAB6DDA00044618D591
:102AF000FFF734FFB0F5007F23D1802C29D9A02C1B
:102B00008CBF02200120174A136823F007030343F8
:102B10001360136803F00703181A18BF012003B0ED
:102B200030BDAB6D43F08053AB65AB6D03F08053AC
:102B30000193019BFFF712FFAB6D23F08053AB6550
:102B4000D8E7802C07D808D0A4F170035842584128
:102B5000D9E70020D7E70320D5E70220D3E700BF5D
:102B60000010024000200240254B9A68D96812F0FC
:102B70000C0205D00C2A15D101F00301012918D14E
:102B800019682048090755BFD3F894101968C1F394
:102B90000321C1F3031150F8210082B30C2A09D09C
:102BA00000207047042A29D0082A174818BF00209F
:102BB00070470020D968DA6801F00301C2F30212FD
:102BC000022902F1010205D0032912D0D968C1F30C
:102BD000062103E0D9680D48C1F30621DB68B0FB8C
:102BE000F2F0C3F34163013348435B00B0FBF3F001
:102BF0007047D9680448C1F30621EFE703487047DE
:102C00000010024038AD000800127A000024F400E1
:102C10002DE9F743054618B9012003B0BDE8F0835C
:102C2000A54C0368A668E768DB0606F00C0607F00B
:102C300003073CD51EB10C2E63D1012F61D123684F
:102C4000980702D5AB69002BE6D02368286A1907DC
:102C500056BFD4F8943023681B0903F0F003834275
:102C60003AD2FFF73FFF0028D6D1236843F008038C
:102C7000236023682A6A23F0F00313432360636808
:102C8000EA6923F47F4343EA02236360FFF76CFFA2
:102C9000A3688A4AC3F30313D35C03F01F03D8402D
:102CA000874B18600020FEF7E3FD0028B5D12B68A4
:102CB000D8075DD42B68990700F19C802B68180712
:102CC00000F1D0802B68590700F1FC80AB6A002B23
:102CD00040F065810020A0E7236843F008032360EB
:102CE000236823F0F003034323606368EA6923F455
:102CF0007F4343EA02236360FFF7F4FE0028C5D058
:102D00008AE7AB691BB3236843F001032360FEF736
:102D1000DFFD804623689A0711D5236843F0080336
:102D2000236023682A6A23F0F00313432360636857
:102D3000EA6923F47F4343EA02236360B7E7FEF7BF
:102D4000C7FDA0EB08000228E4D9032065E723684B
:102D500023F001032360FEF7BBFD804623689B0739
:102D6000A5D5FEF7B5FDA0EB08000228F6D9ECE7E3
:102D7000082E03D00C2E08D1032F06D123689A0306
:102D800098D56B68002B95D146E76B68B3F5803F0B
:102D900010D1236843F480332360FEF799FD804609
:102DA00023689B0386D4FEF793FDA0EB08006428FC
:102DB000F6D9CAE7B3F5A02F04D1236843F48023E2
:102DC0002360E6E7226822F480322260226822F43F
:102DD00080222260002BE0D1FEF77AFD8046236836
:102DE00098037FF567AFFEF773FDA0EB080064283A
:102DF000F5D9AAE7042E03D00C2E10D1022F0ED144
:102E00002368590503D5EB68002B3FF405AF6368D1
:102E10002A6923F0F85343EA026363604EE7EB68E4
:102E20007BB1236843F480732360FEF751FD0746AE
:102E300023685A05EBD4FEF74BFDC01B0228F7D9D7
:102E400083E7236823F480732360FEF741FD074680
:102E500023685B057FF532AFFEF73AFDC01B022801
:102E6000F6D972E76B699BB1D4F8943043F0010353
:102E7000C4F89430FEF72CFD0746D4F894309A0736
:102E80003FF520AFFEF724FDC01B0228F5D95CE713
:102E9000D4F8943023F00103C4F89430FEF718FD01
:102EA0000746D4F894309B077FF50CAFFEF710FD72
:102EB000C01B0228F5D948E70010024020AD0008E9
:102EC00050020020A36DD80029D4A36D43F0805395
:102ED000A365A36D03F080530193019B4FF001089C
:102EE0005D4F3B68D9051DD5AB68012B2BD1D4F8BC
:102EF000903043F00103C4F89030FEF7E9FC41F252
:102F000088390746D4F890309B0742D5B8F1000FB6
:102F10003FF4DCAEA36D23F08053A365D6E64FF0FB
:102F20000008DDE73B6843F480733B60FEF7D0FCAC
:102F300081463B68DA05D7D4FEF7CAFCA0EB09004E
:102F40000228F6D901E7052B06D1D4F8903043F0DA
:102F50000403C4F89030CAE7D4F8902022F00102AC
:102F6000C4F89020D4F8902022F00402C4F89020F5
:102F7000002BC2D1FEF7ACFC41F288390746D4F8E9
:102F800090309807C2D5FEF7A3FCC01B4845F6D980
:102F9000DBE6FEF79DFCC01B4845B3D9D5E60C2EF9
:102FA0003FF43AAE022B236823F08073236037D1BD
:102FB000FEF78EFC0646236899012BD46A6BEB6AF8
:102FC00043EA02232A6B013A43EA0213AA6B12096D
:102FD00043EA4243EA6B5208013A43EA42532A6CFD
:102FE0005208013A43EA4263E360236843F0807386
:102FF0002360E36843F08073E360FEF769FC0546F5
:1030000023689A013FF566AEFEF762FC401B02287A
:10301000F6D99AE6FEF75CFC801B0228CBD994E631
:10302000236813F0205F02BFE36823F00303E3602B
:10303000E36823F0887323F48033E360FEF748FCF1
:10304000054623689B017FF545AEFEF741FC401B1A
:103050000228F6D979E600BF007000402DE9F04162
:103060000E46044610B90120BDE8F081404A1368BD
:1030700003F007038B4229D32368D90731D4216891
:103080008A075BD43A4A136803F007039E425DD374
:1030900011F0040F374D64D10B0706D5AB682269D8
:1030A00023F4605343EAC203AB60FFF75DFDAB68F6
:1030B000314AC3F30313BDE8F041D35C03F01F03AF
:1030C000D8402E4B18600020FEF7D2BB136823F0C7
:1030D00007030B431360136803F007039942C2D13F
:1030E000CAE76268234D032A2B681BD113F0007FC7
:1030F000B9D0AB6823F003031343AB60FEF7E8FBE2
:1031000041F288380746AB68626803F00C03B3EB02
:10311000820FB4D0FEF7DCFBC01B4045F3D903207F
:10312000BDE8F081022A02D113F4003FE0E712B9B2
:1031300013F0020FDCE713F4806FD9E70D4AA068A3
:10314000936823F0F003034393609BE7136823F035
:10315000070333431360136803F007039E4282D1D1
:1031600096E7AB68E26823F4E0631343AB6093E750
:10317000002002400010024020AD00085002002054
:10318000054B064A9B68C3F30223D35C044A1068CC
:1031900003F01F03D84070470010024030AD000814
:1031A00050020020054B064A9B68C3F3C223D35C40
:1031B000044A106803F01F03D84070470010024013
:1031C00030AD000850020020F8B5454BDA6812F027
:1031D000030F05460E461C4600682AD0DA6802F046
:1031E000030282423CD1002A3AD0DB686A68C3F30A
:1031F00002130133934233D1236823F080632360A9
:10320000FEF766FB074623681A0132D4AF68002E2A
:1032100036D0012E50D12269286922F4C00240081C
:1032200022F4FE42013842EA072242EA4052226179
:1032300032E0022810D0032814D0012810D11B68D6
:103240009F0738D5E3686A6823F07303013A18438F
:1032500040EA0210E060CFE71B6813F4806FF1D101
:103260000120F8BD1A689103ECD41B6813F4802F79
:10327000F5E7FEF72DFBC01B0228C4D90320F8BDDB
:103280002169EB6821F41F3121F4407141EA0721E3
:103290001B0941EA43412161236843F080632360B5
:1032A000FEF716FB064623681B0113D52369AA699E
:1032B000134323610020F8BD2369686923F0C063CC
:1032C000400823F4FE43013843EA072343EA4063FE
:1032D0002361E1E7FEF7FCFA801B0228E3D9CDE782
:1032E00000100240F8B53D4BDA6812F0030F0546B6
:1032F0000E461C46006828D0DA6802F003028242BB
:103300003AD1002A38D0DB686A68C3F3021301336C
:10331000934231D1236823F080532360FEF7D8FA1B
:10332000074623689A0030D4A868002E34D0636919
:10333000296923F0C063490823F4FE43013943EAB5
:10334000002343EA4163636132E0022810D003287E
:1033500014D0012810D11B689F0738D5E3686A682C
:1033600023F07303013A184340EA0210E060D1E70A
:103370001B6813F4806FF1D10120F8BD1A68910326
:10338000ECD41B6813F4802FF5E7FEF7A1FAC01BFD
:103390000228C6D90320F8BD6269EB6822F41F3207
:1033A00022F4407242EA00221B0942EA434262616F
:1033B000236843F080532360FEF78AFA06462368A9
:1033C0009B0005D563696A69134363610020F8BDFA
:1033D000FEF77EFA801B0228F1D9DBE700100240DD
:1033E0002DE9F347066816F40066044624D0416EC2
:1033F000B1F5800F2CD002D8C1B101261CE0B1F587
:10340000000F0DD0B1F5400FF7D14D4A616ED2F8E3
:10341000883023F440030B43C2F8883000260BE0C9
:10342000474AD36843F48033D360EEE70430FFF7B4
:10343000CBFE06460028E8D02368D80406D5A16E46
:10344000B1F1807F74D008D8A9B10126354621E0BA
:1034500000212030FFF746FFEBE7B1F1007F04D0F9
:10346000B1F1407FF1D1354609E0354AD36843F4E4
:103470008033D360F7E7201DFFF7A6FE0546002D39
:103480005CD12F4AA16ED2F8883023F040730B43F1
:10349000C2F888302368990340F14F81284FBB6DF3
:1034A000DA0040F176814FF00008DFF89890D9F803
:1034B000003043F48073C9F80030FEF709FA824601
:1034C000D9F80030DB053FD5002D44D1D7F8903036
:1034D00013F4407315D0D4F88420934211D0D7F858
:1034E0009030D7F8902042F48032C7F89020D7F877
:1034F000902023F4407322F48032C7F89020C7F85C
:103500009030D80709D5FEF7E3F941F2883905462E
:10351000D7F89030990740F10981D7F89030D4F866
:10352000842023F440731343C7F89030354612E0EB
:10353000002104F12000FFF7D5FE9FE72E46A9E702
:103540000010024000700040FEF7C2F9A0EB0A0034
:103550000228B5D90325B8F1000F03D0BB6D23F0C5
:103560008053BB652368DA0708D59049A06BD1F872
:10357000882022F003020243C1F888209F0708D563
:103580008A49E06BD1F8882022F00C020243C1F88E
:1035900088205E0708D58549206CD1F8882022F064
:1035A00030020243C1F88820180708D57F49606CB3
:1035B000D1F8882022F0C0020243C1F88820D90641
:1035C00008D57A49A06CD1F8882022F440720243D1
:1035D000C1F888209A0608D57449E06CD1F8882093
:1035E00022F440620243C1F888209F0508D56F4944
:1035F000E06DD1F8882022F440220243C1F88820EF
:103600005E0508D56949206ED1F8882022F4401261
:103610000243C1F88820580608D56449206DD1F8C6
:10362000882022F440520243C1F88820190608D5A8
:103630005E49606DD1F8882022F440420243C1F80F
:103640008820DA0508D55949A06DD1F8882022F4E0
:1036500040320243C1F888209B040FD5534AE16EE3
:10366000D2F8883023F040630B43B1F1006FC2F809
:10367000883064D1D36843F48013D36023681F0378
:103680000FD54A4A216FD2F8883023F040630B43AC
:10369000B1F1006FC2F888305CD1D36843F4801375
:1036A000D36023685E030FD5404A616FD2F888303B
:1036B00023F040630B43B1F1006FC2F8883054D15E
:1036C000D36843F48013D3602368580412D5374974
:1036D000A26FD1F8883023F040531343B2F1805FDA
:1036E000C1F888304CD10221201DFFF76DFD002864
:1036F00018BF05462268110408D52C49E06FD1F89F
:10370000883023F080430343C1F88830D30309D5C0
:10371000264AD4F88010D2F8883023F000430B43B7
:10372000C2F88830284602B0BDE8F087FEF7D0F82E
:10373000401B48457FF6ECAE0CE7354612E7B1F189
:10374000806F9BD10121201DFFF73EFD002818BF8F
:10375000054693E7B1F1806FA3D10121201DFFF74A
:1037600033FD002818BF05469BE7B1F1806FABD150
:103770000121201DFFF728FD002818BF0546A3E7FB
:10378000B2F1005FB6D1022104F12000FFF7AAFDDB
:10379000ADE7BB6D43F08053BB65BB6D03F0805359
:1037A0000193019B4FF001087FE600BF001002402B
:1037B000024A136843F0040313607047001002408C
:1037C00070B5044600284AD00023836290F85D302B
:1037D00003F0FF021BB980F85C2001F0C1FC02235A
:1037E000216884F85D300B68E26823F04003B2F58D
:1037F000E06F0B604FF000032ED91846B2F5706FE2
:1038000018BFA362236B2BB9B2F5E06F8CBF022304
:1038100001232363A6686368A5693343266933439C
:1038200066693343E6693343266A3343A66A334302
:1038300005F4007633430B60636A1A43636B2D0C07
:103840001A4305F004052A430243012300204A607D
:10385000206684F85D3070BD4FF48050D0E70120C1
:1038600070BD704770477047704703681A699107C9
:1038700010B504460FD5DA6892070CD56FF0020236
:103880001A619B6901229907027700F08580FFF792
:10389000E9FF0023237723681A69520710D5DA68F5
:1038A00050070DD56FF004021A619B69022213F4D0
:1038B000407F2277204675D0FFF7D4FF002323777F
:1038C00023681A6911070FD5DA6812070CD56FF053
:1038D00008021A61DB6904229B072277204667D021
:1038E000FFF7C0FF0023237723681A69D00610D59D
:1038F000DA68D1060DD56FF010021A61DB69082273
:1039000013F4407F2277204658D0FFF7ABFF002307
:10391000237723681A69D20708D5DA68D00705D556
:103920006FF001021A61204601F04AFB23681A6910
:10393000110608D5DA68120605D56FF080021A6103
:10394000204600F0F0F823681A69D00508D5DA6837
:10395000110605D56FF480721A61204600F0E4F874
:1039600023681A69520608D5DA68500605D56FF043
:1039700040021A612046FFF777FF23681A69910613
:1039800022D5DA6892061FD56FF0200220461A6110
:10399000BDE8104000F0C6B8FFF763FF2046FFF710
:1039A00062FF76E7FFF75DFF2046FFF75CFF85E7E4
:1039B000FFF757FF2046FFF756FF93E7FFF751FF4A
:1039C0002046FFF750FFA2E710BD0000304A036811
:1039D000904212D0B0F1804F0FD0A2F594329042B5
:1039E0000BD002F58062904207D002F580629042CF
:1039F00003D002F59432904219D14A6823F0700343
:103A00001343234A90421DD0B0F1804F1AD0A2F543
:103A10009432904216D002F58062904212D002F5A4
:103A2000806290420ED002F5943290420AD0194A38
:103A3000904207D002F58062904203D002F5806286
:103A4000904203D1CA6823F4407313434A6923F0B8
:103A50008003134303608B68C3620B6883620C4B63
:103A600098420FD003F5006398420BD003F54063F2
:103A7000984207D003F58063984203D003F5806332
:103A8000984201D10B69036301234361704700BF72
:103A9000002C01400040014010B50446A0B190F850
:103AA0003D3003F0FF021BB980F83C2001F08CFB95
:103AB000022384F83D302068211DFFF787FF012392
:103AC00084F83D30002010BD012010BD90F83C303E
:103AD000012B30B54FF002031FD00268104D80F863
:103AE0003D30AA425368946803D005F50065AA42A8
:103AF00003D14D6823F470032B430D68896823F0CC
:103B000070032B4324F08004536021430123916010
:103B100080F83D30002380F83C30184630BD00BFAF
:103B2000002C014070477047704703681A6822F400
:103B300090721A609A6822F001029A60202380F83D
:103B40007230002303667047704770470368DA6974
:103B5000196870B5160704469D680AD1960664D5A3
:103B60008E0662D5036E002B00F08380BDE87040A6
:103B7000184715F0010002D111F4907F55D0D507F8
:103B800007D5CE0505D501251D62656F45F00105F8
:103B90006567950706D528B102251D62656F45F05A
:103BA00004056567560706D528B104251D62656FB3
:103BB00045F002056567150707D58E0600D420B1CC
:103BC00008201862636F03436367636F002B50D054
:103BD000950605D5880603D5236E0BB12046984778
:103BE000636F1907204604D423689D6815F04005CB
:103BF00017D0FFF79AFF23689A6852060DD59A6886
:103C0000E06E22F040029A6038B11A4B8363FDF7F0
:103C10007BFF70B3E06E836BA8E72046FFF795FF4C
:103C200070BDFFF792FF656770BDD60209D56802C7
:103C300007D54FF4801220461A62BDE8704000F0AC
:103C40006CBB160605D50D0603D5636E8BB12046F9
:103C50008CE750060DD54A060BD51A6822F04002B3
:103C60001A60202384F87130002363662046FFF732
:103C70006BFF70BD793C000808B5806A0023A0F88E
:103C80005A30A0F85230FFF760FF08BD0268C169E2
:103C9000F8B5044683680069156803436069034307
:103CA000BA480B432840034313605368E06823F489
:103CB000405303435360B64BA0699A421CBF236A2A
:103CC0001843936823F4306303439360B14B9A42E3
:103CD00019D103F55843B04AD3F8883003F00303F1
:103CE000B1F5004FD35C40F03881082B00F28F8093
:103CF000DFE813F01A01CA00F9008D0014018D00ED
:103D00008D008D003600A54B9A4207D103F5E633AE
:103D1000A34AD3F8883003F00C03E1E7A14B9A42A1
:103D200023D103F5E433D3F8883003F03003102BAC
:103D300000F0F1800BD8002B00F0F380B1F5004FBC
:103D40004FF001024FF0000300F0F880A8E0202BB4
:103D500000F0C680302BF1D1B1F5004F40F0B880B3
:103D60006068430803F58033C3E08F4B9A421ED14D
:103D700003F5E233D3F8883003F0C003402B00F0A2
:103D8000BB800AD87BB9824B9A4240F0CA80FFF7C9
:103D9000F7F90023B0BB02463AE0802B00F09D808B
:103DA000C02B00F0B0807A4B9A42C7D12FE07F4BF6
:103DB0009A4211D103F5E033D3F8883003F440730D
:103DC000B3F5807F00F09880DCD9B3F5007F00F078
:103DD0008480B3F5407FE4E76D4B9A42AED103F5A2
:103DE000C833D3F8883003F44063B3F5806F00F034
:103DF0008380C7D9B3F5006F6FD0B3F5406FD0E7BC
:103E00006B480223626802EB4201814205D901221C
:103E10000023236663661046F8BDB0EB023FF6D878
:103E2000082B2ED8DFE803F0052D1C2D242D2D2D79
:103E30002700FFF7A5F962684FF480715608002744
:103E4000E1FB0067002330463946FCF719FF0022EA
:103E5000584BA0F540719942D9D82368D860D7E76C
:103E60005548550800230021401941F10001ECE7B5
:103E7000FEF77AFEDFE750080021002310F500006E
:103E8000F3E701220020E3E7FFF78CF94EE0FFF7AC
:103E900077F9626800EB5203B3FBF2F39BB20022A6
:103EA000A3F110004FF6EF718842B0D82168CB60C3
:103EB000AEE7FFF777F9ECE76068430803F57403B2
:103EC00003F51053B3FBF0F3E8E7FEF74DFEE0E730
:103ED0006068430803F50043F4E72D4B9A428FD006
:103EE000B1F5004FE8D16068430803F1F47303F5BE
:103EF0009043B3FBF0F31FE0254B9A420BD1FEF742
:103F000033FE042346E7224B9A427FF425AF4FF459
:103F10000040082376E7B1F5004FD6D1FEF724FE26
:103F200004E0B1F5004FB2D1FFF72AF961684A0801
:103F300002EB4003B3FBF1F39BB20022A3F11000AC
:103F40004FF6EF7188423FF662AF23F00F01206811
:103F5000C3F342030B43C3605AE7082B3FF657AF46
:103F600001A252F823F000BF8F3E0008B33E0008C4
:103F7000B93E00080F3E0008CB3E00080F3E000887
:103F80000F3E00080F3E0008D13E0008F369FFEF26
:103F90000080004000380140B8AB000800440040F9
:103FA000BCAB000800480040004C004000500040FE
:103FB0000024F400FFFC0F00000024F4436ADA0739
:103FC00010B506D50168846A4A6822F4003222439B
:103FD0004A609C0706D50168C46A4A6822F48032A8
:103FE00022434A60590706D50168046B4A6822F4E7
:103FF000802222434A601A0706D50168446B4A684A
:1040000022F4004222434A60DC0606D50168846B34
:104010008A6822F4805222438A60990606D5016894
:10402000C46B8A6822F4005222438A605A060FD574
:104030000168046C4A6822F480122243B4F5801FA0
:104040004A6005D14A68446C22F4C00222434A60A7
:104050001B0606D50268816C536823F400230B43CA
:10406000536010BD2DE9F041069D04460F461646EB
:1040700098462168CA6937EA02030CBF0122002270
:10408000B24202D00020BDE8F0816B1CF2D09DB995
:1040900023681A6822F4D0721A609A6822F001022A
:1040A0009A60202384F8713084F87230002384F8F9
:1040B00070300320BDE8F081FDF70AFCA0EB08009A
:1040C0008542D6D2E4E72DE9F3411F4690F87130DE
:1040D000202B04460D4690464AD1002946D0002A9E
:1040E00044D090F87030012B42D0012380F870301A
:1040F00000234367212380F87130FDF7E9FBA4F822
:1041000050800646A4F85280B4F85220009792B22C
:10411000334652B940212046FFF7A4FF58B9202367
:1041200084F8713084F8700006E000228021204677
:10413000FFF798FF18B1032002B0BDE8F081A36833
:104140002268B3F5805F0DD123695BB935F8023B76
:10415000C3F308031385B4F85230013B9BB2A4F8B3
:104160005230D1E72B7813850135F4E70120E3E7DE
:104170000220E1E72DE9F341984690F87230202BB8
:1041800004460D46164660D100295CD0002A5AD05C
:1041900090F87030012B58D0012380F87030002344
:1041A0004367222380F87230FDF792FBA368A4F8DE
:1041B0005860B3F5805F0746A4F85A6015D12369AB
:1041C0008BB940F2FF13A4F85C30B4F85C60B4F82B
:1041D0005A0080B2B8B9202384F8723084F8700095
:1041E00002B0BDE8F081FF23EDE723B92369002B7E
:1041F000F9D07F23E7E7B3F1805FE6D12369002B95
:10420000F7D03F23DFE7CDF800803B460022202196
:104210002046FFF727FFD0B9A368B3F5805F236876
:104220000CD1226952B99B8C334025F8023BB4F87B
:104230005A30013B9BB2A4F85A30C8E79B8C3340FC
:104240002B700135F3E70120CAE70220C8E70320FD
:10425000C6E773B5044600264667FDF739FB2368B9
:104260001B681A07054617D423681B685B070AD525
:104270006FF07E43009300222B464FF480012046CE
:10428000FFF7F0FEA0B92023002084F8713084F8F5
:10429000700084F872300CE06FF07E430093324679
:1042A00003464FF400112046FFF7DCFE0028DBD068
:1042B000032002B070BD10B5044660B390F87130B1
:1042C00003F0FF021BB980F8702000F09BFF22680A
:1042D000242384F87130136823F00103136020460F
:1042E000FFF7D4FC012816D0636A13B12046FFF70C
:1042F00065FE23685A6822F490425A609A6822F058
:104300002A029A601A6842F0010220461A60BDE84B
:104310001040FFF79EBF012010BD70470A4B013BC4
:1043200001D1032070470269002AF8DA0369064ABE
:1043300043F001030361013AF3D0036913F0010371
:10434000F9D11846704700BF410D030084B038B55D
:1043500005AD85E80E000A9B012B04461BD1836B3B
:1043600023F480338363C36823F4840323F040037E
:10437000C360C36823F44013C360119B012B02BFC9
:10438000C36843F48013C360FFF7C8FFBDE838403B
:10439000002004B07047C36843F04003C360FFF7D8
:1043A000BDFF4FF48033A363F0E7836823F001037C
:1043B00083600020704708B5C368012923F0C0431B
:1043C000C36008D1C36843F00053C3603220FDF7D7
:1043D00085FA002008BD19B9C36843F08043F4E7AB
:1043E000012008BD890141F02001064A0161013A1E
:1043F00005D0036913F02003F9D118467047032054
:10440000704700BF410D03001023064A0361013AC3
:1044100005D0036913F01003F9D118467047032043
:10442000704700BF410D0300D0F800381943C0F8B1
:10443000001800207047000084B02DE9F0410446C8
:1044400007A880E80E000023119F8846194603F153
:10445000400204EB820201330F2B5160F7D1A36BB2
:1044600043F40013A3635FB9A36B23F40013A363A6
:10447000236843F040032360236843F080032360F4
:104480000025C4F8005ED4F80038C4F800380321D1
:104490002046FFF7C9FF04F5006610212046FFF70C
:1044A000A1FF2046FFF7B0FF35612B467561294615
:1044B000F56104F510624FF090404FF000654FF643
:1044C0007F3E43452FD1002104F5306208464FF06E
:1044D00090454FF0006E4FF67F3C8B4234D13369EC
:1044E00023F4807333610023A3616FF08043636121
:1044F000A36943F01003A361A2691C4B1343A3619A
:104500000D9B1BB1A36943F00803A361012F01BFF9
:10451000A36943F0804343F00403A361BDE8F04185
:10452000002004B07047D2F800C0BCF1000F09DAD7
:1045300033B9156011610133C2F808E02032C0E7D9
:104540001060F7E71160F5E7D2F80080B8F1000FCE
:104550000ADA39B9C2F800E010610131C2F808C0C6
:104560002032BAE71560F7E71060F5E700383C80C5
:1045700008B5D0F8043843F00203C0F8043803202B
:10458000FDF7ACF9002008BD13B5194CB4F90000D3
:104590004042FBF7C7FFCDE90001B4F902004042F9
:1045A000FBF7C0FF9DED001B41EC100B05F0F4FF85
:1045B000002251EC100B0F4BFCF71AF80AA3D3E9B9
:1045C0000023FCF73FF9FCF70BFB00EE100AB5EEF9
:1045D000C00AF1EE10FA44BFDFED077A30EE270A89
:1045E00002B010BDAFF3008054E3A59BC420094086
:1045F0004C070020008066400000B443024641F2B0
:10460000883302490248FFF75EBD00BFE00D00207D
:10461000240E0020F0B5B9B014244422002105A8CE
:1046200003F0A3FB22460021684603F09EFB002115
:10463000882216A803F099FBFEF788F9224AD2F8DF
:10464000903023F01803C2F8903060230125022631
:1046500005940D9300242823072705A81293079596
:104660000B950C940F96109511951397149615961B
:10467000FEF7CEFA0F220421032368468DE80C00D2
:10468000029403940494FEF7E9FC104B16934FF048
:10469000806331931823199316A84FF480131D9348
:1046A0002494269427942B943694179518951A974A
:1046B0001B961C96FEF794FE4FF40070FEF756F919
:1046C000FFF776F839B0F0BD001002408D200100F0
:1046D0000A4641F2883302490248FFF7F4BC00BFA2
:1046E000A40F0020E00E002041F28833402202494E
:1046F0000248FFF73FBD00BF3C0D0020E00E002048
:104700002DE9F04F2DED028BADF5017DFDF7C8F8D9
:10471000FFF780FF1422002167A803F026FBB34BAC
:10472000B348DA6CDFF8049342F01002DA64DA6C12
:1047300002F010026292629ADA6C42F00402DA64C9
:10474000DA6C02F004026392639ADA6C42F00102BE
:10475000DA64DA6C02F001026492649ADA6C42F074
:104760000202DA64DA6C02F002026592659ADA6C8F
:1047700042F00802DA64DB6C03F00803669300225F
:1047800040F21511669BFDF75BFB002248F2041115
:104790004FF09040FDF754FB00224FF23401954852
:1047A000FDF74EFB002243F281019348FDF748FBE1
:1047B00000224FF4107191480024FDF741FB0125C0
:1047C00040F2151367A98A48679369946A946895BB
:1047D000FDF7C0F96A2367A985486793CDF8A091D2
:1047E0006994FDF7B7F94FF40053679367A9844BB9
:1047F000824868934FF00B0A6994FDF7ABF93F23A9
:1048000067A97E486793CDF8A0A16994FDF7A2F946
:1048100048F2041367A94FF090404FF002086793E5
:10482000082769946A946895FDF794F967A94FF091
:104830009040679769946A94CDF8A0816B95FDF7D5
:1048400089F9102367A94FF0904003264FF0050B1C
:104850006793CDF8A0A16994FDF77CF9E02367A9DF
:104860004FF09040679369946A96CDF8ACB1CDF85B
:10487000A081FDF76FF967A95E48CDF8A091699412
:104880006795FDF767F967A95A48CDF8A0A1699423
:10489000CDF89C81FDF75EF94FF2340367A95548C6
:1048A000679369946A946895FDF754F94CF604434C
:1048B00067A951486793CDF8A0916994FDF74AF92B
:1048C00043F2810367A94C48679369946A94689599
:1048D000FDF740F94FF4107367A94848679369944E
:1048E0006A946895FDF736F94FF4C07367A9434899
:1048F0006793CDF8A0916994FDF72CF967A93E481C
:1049000069944FF007096A96CDF8ACB1CDF89C8157
:10491000CDF8A081FDF71EF9782367A93648679383
:104920004FF4407A69946A96CDF8AC91CDF8A081A5
:10493000FDF710F912236A9667A904262D4868939B
:10494000CDF89CA16B966995FDF704F922462146A6
:104950001720FCF7E3FF1720FDF714F82146224645
:104960002820FCF7DBFF2820FDF70CF82548264B14
:10497000036006624FF48073244E846004614461D6
:104980008361C4614462C46204630571C0F80C8031
:104990008562FDF745F81E4A1E4BB460304686E836
:1049A0000C0034617461B461F4613462F560FDF748
:1049B000DDFB21463046FDF7E3FE21463046FDF79C
:1049C00005FF15491548FF2380E80A00C4604461CB
:1049D000846185600561FEF72DF81148114B47632E
:1049E0004FF48276104F846022E000BF0010024036
:1049F0000010004800040048000C0048000800486F
:104A0000000021103008002020600140EC0C002044
:104A100000580040EC9C9010001000A0600F002097
:104A20007C0D0020003C0040240E002000001110EE
:104A300080E848004FF40073C0F80CA004614461A2
:104A40008361C461046244628462C0F82C90046390
:104A5000FEF7B6FECD4BBC604FF00C0A4FF4165B70
:104A6000384687E80808FC603C61C7F814A0BC61C0
:104A7000FC613C627C62FFF71EFCC548C54B84604C
:104A80004FF4E13E80E80840C4600461C0F814A01F
:104A90008461C46104624462FFF70DFCBE48DFF824
:104AA000549344614FF0060C4FF0A04380E8081087
:104AB000C4610462446284620463C462C0F80C800E
:104AC000C0F81880FDF7A7FEB44AB54E679440F2CF
:104AD000E73389E80C00484649F64043C9F80C30F2
:104AE00068946994C9F80840C9F81840FEF7D4FFE3
:104AF00067A9484667946994FEF7E8FFA94BB4603C
:104B0000304686E80808F4603461C6F814A0B46141
:104B1000F461346274624FF0400AFFF7CCFBFCF79B
:104B200079FBFCF793FBFCF70DFBFCF7EDFAFCF7C8
:104B300027FBFCF741FBADF88641FCF793FA67A928
:104B40009948CDF89CA168956995CDF8A881FDF7A5
:104B500001F82A4651469448FDF772F94FF47A70ED
:104B6000FCF7BCFE2146914C632267A803F0FDF8D8
:104B700067A9204600F0A6FC002840F07C810DF5D6
:104B8000C372C021204602F08FFF002840F07181DF
:104B9000BDF886214EF6AA639A4212D1204600F053
:104BA00071FE002840F061814FF4BC7204F11001E5
:104BB0006846C4F8645103F0CDF894E80F0002F0A1
:104BC000F7FF3A687A4913687A4C7B487B4FDFF8E5
:104BD000F48143F0200313603268136843F020032C
:104BE0001360D9F80020D36843F00103D360032594
:104BF00003F0B8FD28462570FFF700FD70497148A5
:104C000003F0B0FD29466F482570FFF761FD4FF4B2
:104C10007A70FCF763FE6C496A48674D03F0A2FDA9
:104C2000082168482170FFF753FD4FF4FA60FCF744
:104C300055FE09263946404603F094FD2670FFF7DD
:104C400053FD21784046FFF743FD3946284603F0DF
:104C500089FD30462670FFF7D1FC5C4E5C49284642
:104C600003F080FD08202070FFF7C8FC3246594948
:104C7000284603F053FDC0B22070FFF7BFFC367822
:104C800040F6B830FCF72AFE312ED2D152494A48BC
:104C9000DFED528A03F066FD14202070FFF7AEFCB2
:104CA0004F48FCF7ADFAFFF76FFC4E494248B0EEB3
:104CB000408A03F057FD04202070FFF79FFC18EE98
:104CC000100AFBF741FC02460B463B48464903F0FD
:104CD00025FDC0B22070FFF791FCB5EEC08AF1EE61
:104CE00010FA05DDB4EEE88AF1EE10FA40F2C58064
:104CF000B4EEE88AF1EE10FADFED3F7A05DDB4EEAE
:104D0000E78AF1EE10FA40F2BB80B4EEE78AF1EEEA
:104D100010FADFED3A7A05DDB4EEE78AF1EE10FA2B
:104D200040F2B180B4EEE78AF1EE10FACCBF4FF05A
:104D300004084FF000080025DFF87CA04FF03C0984
:104D40002E462F462648FCF75BFAFFF71DFC10EEB7
:104D5000100AB0EE408AFBF7F7FB0B4602462349E8
:104D6000504603F0DBFCC0B22070FFF747FC424620
:104D70001F49504603F0D2FCC0B22070FFF73EFC42
:104D8000B5EEC08AF1EE10FA3FDD39E0003801409F
:104D90006C08002000480040E4080020001000409B
:104DA000E00E0020004C004000080048C800002031
:104DB00050AC000852070020E00D002061AC000854
:104DC00054AC0008A40F002058AC00083C0D002093
:104DD0006BAC000874AC000881AC00080000B44261
:104DE0004C07002096AC0008A3AC00089BAC000860
:104DF000ADAC00089C0E0020000034430000874347
:104E0000B4EEE88AF1EE10FA40D9B4EEE88AF1EE99
:104E100010FA5FED077A04DDB4EEE78AF1EE10FADE
:104E200036D9B4EEE78AF1EE10FA5FED0C7A04DDC4
:104E3000B4EEE78AF1EE10FA2CD9B4EE678AF1EEFF
:104E400010FAC8BF04252A464D49504603F066FCB7
:104E5000C0B22070FFF7D2FBB8F1040F1CD1012DB6
:104E600022D10137FFB2A84621E0464803F04EFCAC
:104E7000A7E64548FAE74548F8E74FF001085AE742
:104E80004FF0020857E74FF0030854E70125DAE72F
:104E90000225D8E70325D6E7B8F1010F04D1042D88
:104EA00002D10136F6B2DEE7A845DAD8F9D33A46A0
:104EB0003749504603F032FCC0B22070FFF79EFB2A
:104EC00032463449504603F029FC09F1FF39C0B29B
:104ED0002070FFF793FB19F0FF094CD1FCF7AEF9F6
:104EE0002D4BDFF8D8B083ED000AFCF7C1F92B4B4E
:104EF0005F9383ED000AFCF757F929488BED000A10
:104F0000FCF716F92748FCF731F967A9264800F0A5
:104F1000CEFE5F9B254A93ED007ABDF8A411118067
:104F2000F2EE047A67EE277A17EE900AFBF70CFB95
:104F300000221F4BFBF7AAF9FBF732FE02960197FE
:104F4000DBED007A1B4977EEA77A82B2FCEEE77AB6
:104F50001948CDED5F7A9DF87C310093D3B2120AE7
:104F600003F0DCFBC1B214482170FFF7B1FB4E46E1
:104F70004F464FF03C094FF4FA70FCF7AFFCE1E606
:104F8000BCAC0008C9AB0008F7AB000824AC0008B3
:104F9000C8AC0008DAAC000868080020580F0020F0
:104FA0003807002040070020C80000202C080020FF
:104FB0000000E03FEEAC0008A40F0020380D0020F8
:104FC0000020FCF745B800000A4B1A6E42F00102BF
:104FD0001A661A6E82B002F001020092009A9A6D6F
:104FE00042F080529A659B6D03F080530193019BC0
:104FF00002B070470010024000B589B014220021B1
:1050000003A802F0B2FE134B1B6803BB03F18043FD
:1050100003F5043303A91A6E0F4842F080721A6632
:105020001A6E02F080720192019ADA6C42F010025C
:10503000DA64DB6C03F010030293029B4FF42073DD
:1050400003930223049306230793FCF783FD09B01F
:105050005DF804FB540700200010004810B504461A
:1050600088B01422002103A802F07FFE2268134BAF
:105070009A4221D1124C1348E36C43F00203E364DB
:10508000E36C03F002030193019B4FF4406303932D
:1050900012230493012305930323069303A90423F6
:1050A0000793FCF757FDA36D43F48003A365A36D3D
:1050B00003F480030293029B08B010BD0058004027
:1050C00000100240000400480268074B9A4209D1D0
:1050D000064A0748936D23F4800393654FF44061BB
:1050E000FCF714BE704700BF00580040001002409B
:1050F0000004004810B5044688B01422002103A81B
:1051000002F033FE2268144B9A4222D103F120436D
:1051100003F5003303A91A6D104842F480721A6532
:105120001A6D02F480720192019ADA6C42F0100258
:10513000DA64DB6C03F010030293029B4FF47C43B0
:10514000039302230493032306930A230793FCF794
:1051500001FD08B010BD00BF001000A00010004805
:1051600010B5044688B01422002103A802F0FDFD0A
:105170002268134B9A4220D103F5EA3303A99A6DB2
:10518000104842F400429A659A6D02F4004201927E
:10519000019ADA6C42F00402DA64DB6C03F0040377
:1051A0000293029B4FF4E0530393022304930323DF
:1051B000069306230793FCF7CDFC08B010BD00BF93
:1051C000003C00400008004807B50D4B02689A42B9
:1051D00012D103F5003336209A6D42F010029A6521
:1051E0009B6D03F01003019300220121019BFCF74A
:1051F00095FB3620FCF7C6FB03B05DF804FB00BF4F
:105200000010004010B504468CB01422002107A8FD
:1052100002F0ABFD23683C4A934228D13B4B9A6D88
:1052200042F400229A659A6D02F400220192019ADA
:10523000DA6C42F00102DA64DB6C03F001030293E2
:10524000029B02230324089307A908234FF09040F0
:105250000B9307940A94FCF77DFC3420002221462E
:10526000FCF75CFB3420FCF78DFB0CB010BD284A2A
:10527000934225D1254B27481A6E42F480421A6684
:105280001A6E02F480420392039ADA6C42F0020230
:10529000DA64DB6C03F002030493049BC0230793DE
:1052A000032302240A9307A907230B930894FCF70E
:1052B00051FC252000222146FCF730FB2520D2E7B7
:1052C000154A9342D1D1114B14489A6D42F4802271
:1052D0009A659A6D02F480220592059ADA6C42F082
:1052E0000802DA64DB6C03F008030693069B4FF4B4
:1052F000407307930223089303230A9307A9072304
:105300000B93FCF727FCB0E7004C00400010024074
:10531000003801400004004800480040000C0048EC
:1053200010B5044688B01422002103A802F01DFD28
:105330002368B3F1A04F3CD1204CE36C43F0010350
:10534000E364E36C03F001030093009B03A94FF4B3
:1053500000734FF090400393FCF7FCFB4FF4E053D5
:10536000039302230493002305930323069303A9C5
:105370000A234FF090400793FCF7ECFBE36C43F4F7
:105380008053E364E36C03F480530193019BA36DAA
:10539000DB0010D4A36D43F08053A365A36D03F02D
:1053A00080530293029BFDF717FBA36D23F08053FC
:1053B000A36508B010BDFDF70FFBFAE7001002402F
:1053C0007047FEE7FEE7FEE7FEE77047704770476D
:1053D000FCF776BA08B52020FCF73CFD4020FCF72E
:1053E00039FD8020FCF736FD4FF48070BDE80840A1
:1053F000FCF730BD034B9A8C034B1A70034B012210
:105400001A70704700380140E40F0020241000207B
:1054100008B54FF48060FCF71DFD4FF40060FCF709
:1054200019FD4FF40050FCF715FD4FF48040FCF7D8
:1054300011FD4FF40040BDE80840FCF70BBD000033
:1054400008B50748FEF782FB064A07491378888C9F
:1054500006490F2BC85494BF01330023137008BDB5
:10546000E00E002025100020004C0040E40F00203A
:105470000148FEF7FAB900BF9C0E00200F49D1F891
:10548000883043F47003C1F888300D4B1A6800204F
:1054900042F001021A6098601A6822F0A85222F4C1
:1054A00010221A604FF48052DA601A6822F48022C7
:1054B0001A6098614FF000638B60704700ED00E068
:1054C0000010024002F046BA152907D80122054B08
:1054D0008A40134013B10174002070476FF0070039
:1054E000704700BF0B00300010B50A460C4609217A
:1054F00002F091FA18B9237803F00103237010BD6C
:1055000001F07ABE01F054BD01F05DBEF7B517465B
:1055100002AA00230C4602F8013D0121064602F0D2
:105520007AFA0546D8B9012F9DF8073026D1042C08
:105530003AD8DFE804F003171A1D200043F01004E6
:10554000A3420CD022460121304602F0F3FA054670
:1055500028B986F8304171693046FFF7D1FF2846F7
:1055600003B0F0BD43F02804EAE743F00404E7E7A2
:1055700043F04004E4E743F08004E1E7042C13D84F
:10558000DFE804F00306090C0F0003F0EF04D7E78F
:1055900003F0D704D4E703F0FB04D1E703F0BF0422
:1055A000CEE703F07F04CBE76FF00305D7E713B531
:1055B00002AA00230C4602F8013D012102F02BFA59
:1055C00078B99DF80730C3F300122270C3F3C0020C
:1055D000A270C3F380026270C3F38012DB09E27031
:1055E000237102B010BD13B5144601AA01F0D4FB1B
:1055F00078B9019B4FF47A72B3FBF2F102FB1133DD
:10560000C3EB034303F5FA73B3FBF2F303EB01437C
:10561000236002B010BD37B50D460DF10202F8212E
:10562000044602F041FA70B901AA0421204602F0B2
:105630005BFA40B9BDF802201AB1019BB3FBF2F34B
:105640002B602B68A36103B030BD037F0B7000207B
:10565000704737B50D460DF106022021044602F0D1
:1056600023FA28B9BDF8063023B9236A2B602077C6
:1056700003B030BDDB002B60236201232377F7E703
:10568000052970B504460D46164632D8A2B300EB84
:10569000810301215A6B0023681E042804D8DFE827
:1056A00000F00B14171A210084F828102C44E6B9D6
:1056B00084F82860002070BDC2F34F2244212046A8
:1056C00002F048FA0028F1D070BD84F82A10EDE706
:1056D00084F82B10EAE75B00FE226021204602F0EE
:1056E0004BFAEFE71B01EF22F7E7012384F828309C
:1056F000E0E76FF0030070BD11460123CCE70529F8
:105700008CBF6FF0030040184FF0000397BF90F874
:105710002810137011701846704770B5431804466E
:1057200093F828000E46154618B904EB810462630D
:1057300070BD05291BD8DFE801F003091214161605
:10574000626304EB86040020656370BDC2F34F22E0
:105750004421204602F0FEF90028F2D070BDE26339
:10576000EFE72264EDE7C2F34F226421F1E76FF027
:105770000300F3E737B50446154605292CD8DFE8C2
:1057800001F0030717191B1B436B2B60002021E05E
:105790000DF10602442102F087F9D8B9BDF80620C0
:1057A00053029AB12B60A363012384F8293011E0DE
:1057B000C36BEAE7036CE8E70DF10602642102F02F
:1057C00073F938B9BDF806305B02DEE7A36B2B60D6
:1057D00084F8290003B030BD6FF00300FAE737B555
:1057E0000C460DF107020121054602F014F958B9E3
:1057F0009DF8073085F830311B0646BF0123237022
:105800002070237885F84C3003B030BD2DE9F84383
:10581000037C0C4601F8083B0546FFF7FCFE40BB45
:10582000207304F110012846FFF713FF08BB04F1B1
:105830001401284600F003FCD8B904F1240705F14F
:10584000280904F1180806463A46B1B22846FFF77F
:1058500091FF70B9013619F8013B08F8013B062E9B
:1058600007F10407F0D104F13C012846FFF7B7FF28
:1058700008B1BDE8F883211D2846BDE8F84301F0D2
:105880001CBD0000F0B50022054691B0882102F051
:1058900051F94FF47A72A5F84E214FF4C872A5F869
:1058A0005021414AC5F854210023404A85F8F03080
:1058B000C5F8D4202B6269462846FFF7A7FF0446A7
:1058C00080B98DF800008DF801006E460FCE05F10D
:1058D00010070FC70FCE0FC70FCE0FC796E80F00E8
:1058E00087E80F006423A5F834314FF46173A5F8FD
:1058F00036314FF4FA73A5F838314FF42063A5F828
:105900003A31012385F84C310026002C49D1B1B23F
:1059100001222846FFF7B4FE0136062E0446F4D1D4
:10592000F8BB85F82A0085F82B000246042128469A
:10593000FFF7A6FE0446A0BB024605212846FFF756
:105940009FFE044668BB01464FF490122846FFF7BD
:10595000E4FE044628BB4FF4804201212846FFF7AD
:10596000DCFE0446E8B94FF40C1202212846FFF78A
:10597000D4FE0446A8B9024603212846FFF7CDFE0F
:10598000044670B9FF2285F830210121284602F033
:10599000D1F8012385F83231044610B9002385F887
:1059A0001531204611B0F0BD856B0100A4700900CF
:1059B000012300F066BD2DE9F0478EB00C460C23A4
:1059C00004AA1421064602F059F88646002875D12B
:1059D0009DF816309DF817209DF818109DF81A5064
:1059E0009DF81B70A07502EB03229DF81930206012
:1059F00003EB01239BB25B0223619DF812109DF81B
:105A00001330606007EB052703EB012392B2B6F871
:105A10004E519DF8101052029BB2E260A382B5F580
:105A20007A7FBFB296F831E10CD007FB05F0377FE3
:105A30004FF47A7500F5FA7090FBF5F0356A002F97
:105A400040D187B2BEF1000F46D0B8082081B8011E
:105A5000E0750DF10F0001900094304601F05CFEFE
:105A6000864658BB9DF80FC084F818C006F1500553
:105A70000FCD07AF0FC795E80700B4F808A0E37D86
:105A8000B4F80A90B4F81480ADF824A087E80700B1
:105A9000E16822696068ADF826900A910B92ADF832
:105AA00030808DF833308DF834C007AC08900FCCBF
:105AB00050360FC697E8070085E8070070460EB01D
:105AC000BDE8F087ADB25D432D12AA4207D1BEF109
:105AD000000F0AD148F6E02727810020B8E780B2FE
